{
  "_format": "hh-sol-artifact-1",
  "contractName": "DigitalSwap",
  "sourceName": "contracts/DigitalSwap.sol",
  "address": "0xB698d0209851908a76b63057Cccb1298E8CF80c8",
  "abi": [
    {
      "inputs": [
        {
          "internalType": "address",
          "name": "_owner",
          "type": "address"
        },
        {
          "internalType": "contract DcopMetadata",
          "name": "_Dcop",
          "type": "address"
        },
        {
          "internalType": "contract IERC20Metadata",
          "name": "_usd",
          "type": "address"
        },
        {
          "internalType": "address",
          "name": "_usdCopFeed",
          "type": "address"
        },
        {
          "internalType": "contract IERC20Metadata",
          "name": "_usdct",
          "type": "address"
        },
        {
          "internalType": "contract IUniswapV2Router02",
          "name": "_router",
          "type": "address"
        }
      ],
      "stateMutability": "nonpayable",
      "type": "constructor"
    },
    {
      "anonymous": false,
      "inputs": [
        {
          "indexed": true,
          "internalType": "address",
          "name": "previousOwner",
          "type": "address"
        },
        {
          "indexed": true,
          "internalType": "address",
          "name": "newOwner",
          "type": "address"
        }
      ],
      "name": "OwnershipTransferred",
      "type": "event"
    },
    {
      "anonymous": false,
      "inputs": [
        {
          "indexed": false,
          "internalType": "address",
          "name": "sender",
          "type": "address"
        },
        {
          "indexed": false,
          "internalType": "address",
          "name": "tokenIn",
          "type": "address"
        },
        {
          "indexed": false,
          "internalType": "uint256",
          "name": "amountIn",
          "type": "uint256"
        },
        {
          "indexed": false,
          "internalType": "address",
          "name": "tokenOut",
          "type": "address"
        },
        {
          "indexed": false,
          "internalType": "uint256",
          "name": "amountOut",
          "type": "uint256"
        }
      ],
      "name": "Swapped",
      "type": "event"
    },
    {
      "inputs": [],
      "name": "BurnFee",
      "outputs": [
        {
          "internalType": "uint256",
          "name": "",
          "type": "uint256"
        }
      ],
      "stateMutability": "view",
      "type": "function"
    },
    {
      "inputs": [],
      "name": "DcopToken",
      "outputs": [
        {
          "internalType": "contract DcopMetadata",
          "name": "",
          "type": "address"
        }
      ],
      "stateMutability": "view",
      "type": "function"
    },
    {
      "inputs": [],
      "name": "MintFee",
      "outputs": [
        {
          "internalType": "uint256",
          "name": "",
          "type": "uint256"
        }
      ],
      "stateMutability": "view",
      "type": "function"
    },
    {
      "inputs": [],
      "name": "WETH",
      "outputs": [
        {
          "internalType": "address",
          "name": "",
          "type": "address"
        }
      ],
      "stateMutability": "view",
      "type": "function"
    },
    {
      "inputs": [],
      "name": "artificialPrice",
      "outputs": [
        {
          "internalType": "int256",
          "name": "",
          "type": "int256"
        }
      ],
      "stateMutability": "view",
      "type": "function"
    },
    {
      "inputs": [
        {
          "internalType": "address",
          "name": "fromToken",
          "type": "address"
        },
        {
          "internalType": "uint256",
          "name": "fromTokenAmount",
          "type": "uint256"
        },
        {
          "internalType": "address",
          "name": "toToken",
          "type": "address"
        }
      ],
      "name": "calculateAmountOut",
      "outputs": [
        {
          "internalType": "uint256",
          "name": "",
          "type": "uint256"
        }
      ],
      "stateMutability": "view",
      "type": "function"
    },
    {
      "inputs": [],
      "name": "daysInSellPeriod",
      "outputs": [
        {
          "internalType": "uint256",
          "name": "",
          "type": "uint256"
        }
      ],
      "stateMutability": "view",
      "type": "function"
    },
    {
      "inputs": [
        {
          "internalType": "uint256",
          "name": "copAmountIn",
          "type": "uint256"
        }
      ],
      "name": "getAmountOutInUSD",
      "outputs": [
        {
          "internalType": "uint256",
          "name": "",
          "type": "uint256"
        }
      ],
      "stateMutability": "view",
      "type": "function"
    },
    {
      "inputs": [],
      "name": "getAvailableUSD",
      "outputs": [
        {
          "internalType": "uint256",
          "name": "",
          "type": "uint256"
        }
      ],
      "stateMutability": "view",
      "type": "function"
    },
    {
      "inputs": [],
      "name": "getCopPrice",
      "outputs": [
        {
          "internalType": "int256",
          "name": "price",
          "type": "int256"
        }
      ],
      "stateMutability": "view",
      "type": "function"
    },
    {
      "inputs": [],
      "name": "getLatestPrice",
      "outputs": [
        {
          "internalType": "int256",
          "name": "",
          "type": "int256"
        }
      ],
      "stateMutability": "view",
      "type": "function"
    },
    {
      "inputs": [],
      "name": "getTotalLiquidityInUSD",
      "outputs": [
        {
          "internalType": "uint256",
          "name": "",
          "type": "uint256"
        }
      ],
      "stateMutability": "view",
      "type": "function"
    },
    {
      "inputs": [],
      "name": "owner",
      "outputs": [
        {
          "internalType": "address",
          "name": "",
          "type": "address"
        }
      ],
      "stateMutability": "view",
      "type": "function"
    },
    {
      "inputs": [],
      "name": "periodSellLimit",
      "outputs": [
        {
          "internalType": "uint256",
          "name": "",
          "type": "uint256"
        }
      ],
      "stateMutability": "view",
      "type": "function"
    },
    {
      "inputs": [],
      "name": "renounceOwnership",
      "outputs": [],
      "stateMutability": "nonpayable",
      "type": "function"
    },
    {
      "inputs": [
        {
          "internalType": "address",
          "name": "",
          "type": "address"
        }
      ],
      "name": "salesInPeriod",
      "outputs": [
        {
          "internalType": "uint256",
          "name": "amount",
          "type": "uint256"
        },
        {
          "internalType": "uint256",
          "name": "startOfPeriod",
          "type": "uint256"
        }
      ],
      "stateMutability": "view",
      "type": "function"
    },
    {
      "inputs": [
        {
          "internalType": "int256",
          "name": "_artificialPrice",
          "type": "int256"
        }
      ],
      "name": "setArtificialPrice",
      "outputs": [],
      "stateMutability": "nonpayable",
      "type": "function"
    },
    {
      "inputs": [
        {
          "internalType": "uint256",
          "name": "_burnFee",
          "type": "uint256"
        }
      ],
      "name": "setBurnFee",
      "outputs": [],
      "stateMutability": "nonpayable",
      "type": "function"
    },
    {
      "inputs": [
        {
          "internalType": "uint256",
          "name": "_newDaysInSellPeriod",
          "type": "uint256"
        }
      ],
      "name": "setDaysInSellPeriod",
      "outputs": [],
      "stateMutability": "nonpayable",
      "type": "function"
    },
    {
      "inputs": [
        {
          "internalType": "uint256",
          "name": "_mintFee",
          "type": "uint256"
        }
      ],
      "name": "setMintFee",
      "outputs": [],
      "stateMutability": "nonpayable",
      "type": "function"
    },
    {
      "inputs": [
        {
          "internalType": "uint256",
          "name": "_newPeriodSellLimit",
          "type": "uint256"
        }
      ],
      "name": "setPeriodSellLimit",
      "outputs": [],
      "stateMutability": "nonpayable",
      "type": "function"
    },
    {
      "inputs": [
        {
          "internalType": "contract IERC20",
          "name": "token",
          "type": "address"
        },
        {
          "internalType": "uint256",
          "name": "amountIn",
          "type": "uint256"
        },
        {
          "internalType": "uint256",
          "name": "minAmountOut",
          "type": "uint256"
        },
        {
          "internalType": "uint256",
          "name": "deadline",
          "type": "uint256"
        }
      ],
      "name": "swapDCOPForTokens",
      "outputs": [
        {
          "internalType": "uint256",
          "name": "amountOut",
          "type": "uint256"
        }
      ],
      "stateMutability": "nonpayable",
      "type": "function"
    },
    {
      "inputs": [
        {
          "internalType": "contract IERC20",
          "name": "token",
          "type": "address"
        },
        {
          "internalType": "uint256",
          "name": "amountIn",
          "type": "uint256"
        }
      ],
      "name": "swapDCOPForTokensPreview",
      "outputs": [
        {
          "internalType": "uint256",
          "name": "",
          "type": "uint256"
        }
      ],
      "stateMutability": "view",
      "type": "function"
    },
    {
      "inputs": [
        {
          "internalType": "uint256",
          "name": "minAmountOut",
          "type": "uint256"
        },
        {
          "internalType": "uint256",
          "name": "deadline",
          "type": "uint256"
        }
      ],
      "name": "swapMaticForDCOP",
      "outputs": [
        {
          "internalType": "uint256",
          "name": "amountOut",
          "type": "uint256"
        }
      ],
      "stateMutability": "payable",
      "type": "function"
    },
    {
      "inputs": [
        {
          "internalType": "uint256",
          "name": "amountIn",
          "type": "uint256"
        }
      ],
      "name": "swapMaticForDCOPPreview",
      "outputs": [
        {
          "internalType": "uint256",
          "name": "amountOut",
          "type": "uint256"
        }
      ],
      "stateMutability": "view",
      "type": "function"
    },
    {
      "inputs": [
        {
          "internalType": "contract IERC20",
          "name": "token",
          "type": "address"
        },
        {
          "internalType": "uint256",
          "name": "amountIn",
          "type": "uint256"
        },
        {
          "internalType": "uint256",
          "name": "minAmountOut",
          "type": "uint256"
        },
        {
          "internalType": "uint256",
          "name": "deadline",
          "type": "uint256"
        }
      ],
      "name": "swapTokensForDCOP",
      "outputs": [
        {
          "internalType": "uint256",
          "name": "amountOut",
          "type": "uint256"
        }
      ],
      "stateMutability": "nonpayable",
      "type": "function"
    },
    {
      "inputs": [
        {
          "internalType": "contract IERC20",
          "name": "token",
          "type": "address"
        },
        {
          "internalType": "uint256",
          "name": "amountIn",
          "type": "uint256"
        }
      ],
      "name": "swapTokensForDCOPPreview",
      "outputs": [
        {
          "internalType": "uint256",
          "name": "amountOut",
          "type": "uint256"
        }
      ],
      "stateMutability": "view",
      "type": "function"
    },
    {
      "inputs": [
        {
          "internalType": "address",
          "name": "_tokenAddress",
          "type": "address"
        },
        {
          "internalType": "address",
          "name": "_to",
          "type": "address"
        },
        {
          "internalType": "uint256",
          "name": "_amount",
          "type": "uint256"
        }
      ],
      "name": "transferAnyERC20",
      "outputs": [],
      "stateMutability": "nonpayable",
      "type": "function"
    },
    {
      "inputs": [
        {
          "internalType": "address",
          "name": "_to",
          "type": "address"
        },
        {
          "internalType": "uint256",
          "name": "_amount",
          "type": "uint256"
        }
      ],
      "name": "transferMatic",
      "outputs": [],
      "stateMutability": "nonpayable",
      "type": "function"
    },
    {
      "inputs": [
        {
          "internalType": "address",
          "name": "newOwner",
          "type": "address"
        }
      ],
      "name": "transferOwnership",
      "outputs": [],
      "stateMutability": "nonpayable",
      "type": "function"
    },
    {
      "inputs": [],
      "name": "usdToken",
      "outputs": [
        {
          "internalType": "contract IERC20Metadata",
          "name": "",
          "type": "address"
        }
      ],
      "stateMutability": "view",
      "type": "function"
    },
    {
      "inputs": [],
      "name": "usdcToken",
      "outputs": [
        {
          "internalType": "contract IERC20",
          "name": "",
          "type": "address"
        }
      ],
      "stateMutability": "view",
      "type": "function"
    }
  ],
  "bytecode": "0x60806040526032600c55601e600d553480156200001b57600080fd5b5060405162003954380380620039548339810160408190526200003e91620002ae565b600080546001600160a01b0319166001600160a01b0385161790556200006b620000653390565b62000161565b6001600255600780546001600160a01b038088166001600160a01b0319928316179092556008805487841690831617905560098054858416908316179055600680549284169290911682179055604080516315ab88c960e31b8152905163ad5c464891600480820192602092909190829003018186803b158015620000ef57600080fd5b505afa15801562000104573d6000803e3d6000fd5b505050506040513d601f19601f820116820180604052508101906200012a919062000288565b600a80546001600160a01b0319166001600160a01b03929092169190911790556200015586620001b3565b50505050505062000357565b600180546001600160a01b038381166001600160a01b0319831681179093556040519116919082907f8be0079c531659141344cd1fd0a4f28419497f9722a3daafe3b4186f6b6457e090600090a35050565b6001546001600160a01b03163314620002135760405162461bcd60e51b815260206004820181905260248201527f4f776e61626c653a2063616c6c6572206973206e6f7420746865206f776e657260448201526064015b60405180910390fd5b6001600160a01b0381166200027a5760405162461bcd60e51b815260206004820152602660248201527f4f776e61626c653a206e6577206f776e657220697320746865207a65726f206160448201526564647265737360d01b60648201526084016200020a565b620002858162000161565b50565b6000602082840312156200029a578081fd5b8151620002a78162000341565b9392505050565b60008060008060008060c08789031215620002c7578182fd5b8651620002d48162000341565b6020880151909650620002e78162000341565b6040880151909550620002fa8162000341565b60608801519094506200030d8162000341565b6080880151909350620003208162000341565b60a0880151909250620003338162000341565b809150509295509295509295565b6001600160a01b03811681146200028557600080fd5b6135ed80620003676000396000f3fe6080604052600436106101e35760003560e01c80639913b14711610102578063cda0ebc011610095578063eddd0d9c11610064578063eddd0d9c14610550578063f2fde38b14610570578063f897a22b14610590578063ffa9aa18146105b057600080fd5b8063cda0ebc0146104f0578063d56cc40f14610505578063d57a25821461051a578063e81884b91461053057600080fd5b8063bb001435116100d1578063bb00143514610470578063bf92406314610490578063c24eb13f146104b0578063c8866497146104d057600080fd5b80639913b147146103d1578063ad5c4648146103f1578063b12c310314610411578063b5277ee81461045a57600080fd5b80635b6f547e1161017a5780637694116f116101495780637694116f1461035e5780638da5cb5b1461037e5780638e15f4731461039c57806392bbe348146103b157600080fd5b80635b6f547e146102e95780636899abfc146103095780636cd0a57714610329578063715018a61461034957600080fd5b8063475f8524116101b6578063475f85241461027e5780634bf2c7c91461029e5780634e9d9fef146102c05780634eb5659f146102d357600080fd5b806311eac855146101e85780631a0767051461022557806337ee5075146102485780633f5a68041461025e575b600080fd5b3480156101f457600080fd5b50600954610208906001600160a01b031681565b6040516001600160a01b0390911681526020015b60405180910390f35b34801561023157600080fd5b5061023a6105c6565b60405190815260200161021c565b34801561025457600080fd5b5061023a60035481565b34801561026a57600080fd5b5061023a610279366004613186565b6105d5565b34801561028a57600080fd5b5061023a61029936600461314c565b610611565b3480156102aa57600080fd5b506102be6102b9366004613186565b6108e7565b005b61023a6102ce3660046131f9565b610946565b3480156102df57600080fd5b5061023a600c5481565b3480156102f557600080fd5b506102be610304366004612fc0565b610c7e565b34801561031557600080fd5b5061023a610324366004613186565b610cf1565b34801561033557600080fd5b50600754610208906001600160a01b031681565b34801561035557600080fd5b506102be610d32565b34801561036a57600080fd5b506102be610379366004613186565b610d98565b34801561038a57600080fd5b506001546001600160a01b0316610208565b3480156103a857600080fd5b5061023a610df7565b3480156103bd57600080fd5b5061023a6103cc366004613000565b610e98565b3480156103dd57600080fd5b5061023a6103ec366004613000565b610f59565b3480156103fd57600080fd5b50600a54610208906001600160a01b031681565b34801561041d57600080fd5b5061044561042c366004612f88565b6005602052600090815260409020805460019091015482565b6040805192835260208301919091520161021c565b34801561046657600080fd5b5061023a60045481565b34801561047c57600080fd5b506102be61048b366004613186565b61109c565b34801561049c57600080fd5b5061023a6104ab36600461314c565b6110fb565b3480156104bc57600080fd5b5061023a6104cb36600461302b565b6112f7565b3480156104dc57600080fd5b506102be6104eb366004613186565b61161f565b3480156104fc57600080fd5b5061023a6116cf565b34801561051157600080fd5b5061023a6116ea565b34801561052657600080fd5b5061023a600b5481565b34801561053c57600080fd5b506102be61054b366004613000565b6117f6565b34801561055c57600080fd5b506102be61056b366004613186565b6118f3565b34801561057c57600080fd5b506102be61058b366004612f88565b611952565b34801561059c57600080fd5b50600854610208906001600160a01b031681565b3480156105bc57600080fd5b5061023a600d5481565b60006105d06116ea565b905090565b600a5460009061060b90610606906001600160a01b03166105f585611a34565b6008546001600160a01b03166112f7565b611a5d565b92915050565b600060028054141561066a5760405162461bcd60e51b815260206004820152601f60248201527f5265656e7472616e637947756172643a207265656e7472616e742063616c6c0060448201526064015b60405180910390fd5b6002805581428110156106bf5760405162461bcd60e51b815260206004820152601860248201527f5065674465783a20444541444c494e455f4558504952454400000000000000006044820152606401610661565b6106d46001600160a01b038716333088611c38565b60006106df86611a34565b60085490915081906001600160a01b0389811691161480159061071057506009546001600160a01b03898116911614155b1561086e5760085461072e90899084906001600160a01b03166112f7565b6040805160028082526060820183529293506000929091602083019080368337019050509050888160008151811061077657634e487b7160e01b600052603260045260246000fd5b6001600160a01b0392831660209182029290920101526008548251911690829060019081106107b557634e487b7160e01b600052603260045260246000fd5b6001600160a01b0392831660209182029290920101526006546107dd918b8116911685611cef565b6006546040516338ed173960e01b81526001600160a01b03909116906338ed173990610815908690869086903090429060040161336a565b600060405180830381600087803b15801561082f57600080fd5b505af1158015610843573d6000803e3d6000fd5b505050506040513d6000823e601f3d908101601f1916820160405261086b919081019061306c565b50505b610879888288611de2565b600754604080513381526001600160a01b03808d1660208301529181018b905291166060820152608081018290529094507f692315744755ee6d80decaeb993d4b1bb95ff5db042cc47b32d5a7d858b019029060a00160405180910390a15050600160025550949350505050565b6001546001600160a01b031633146109415760405162461bcd60e51b815260206004820181905260248201527f4f776e61626c653a2063616c6c6572206973206e6f7420746865206f776e65726044820152606401610661565b600d55565b600060028054141561099a5760405162461bcd60e51b815260206004820152601f60248201527f5265656e7472616e637947756172643a207265656e7472616e742063616c6c006044820152606401610661565b6002805581428110156109ef5760405162461bcd60e51b815260206004820152601860248201527f5065674465783a20444541444c494e455f4558504952454400000000000000006044820152606401610661565b600a54600090610a0b906001600160a01b03166105f534611a34565b60408051600280825260608201835292935060009290916020830190803683375050600a5482519293506001600160a01b031691839150600090610a5f57634e487b7160e01b600052603260045260246000fd5b6001600160a01b039283166020918202929092010152600854825191169082906001908110610a9e57634e487b7160e01b600052603260045260246000fd5b6001600160a01b0392831660209182029290920101526006546040517f7ff36ab5000000000000000000000000000000000000000000000000000000008152911690637ff36ab5903490610afc908690869030904290600401613335565b6000604051808303818588803b158015610b1557600080fd5b505af1158015610b29573d6000803e3d6000fd5b50505050506040513d6000823e601f3d908101601f19168201604052610b52919081019061306c565b50610b5c82611a5d565b935085841015610bae5760405162461bcd60e51b815260206004820152601b60248201527f5065674465783a20494e53554646494349454e545f4f555450555400000000006044820152606401610661565b6007546040516340c10f1960e01b8152336004820152602481018690526001600160a01b03909116906340c10f1990604401600060405180830381600087803b158015610bfa57600080fd5b505af1158015610c0e573d6000803e3d6000fd5b5050600a54600754604080513381526001600160a01b039384166020820152348183015292909116606083015260808201889052517f692315744755ee6d80decaeb993d4b1bb95ff5db042cc47b32d5a7d858b0190293509081900360a0019150a1505060016002555092915050565b6001546001600160a01b03163314610cd85760405162461bcd60e51b815260206004820181905260248201527f4f776e61626c653a2063616c6c6572206973206e6f7420746865206f776e65726044820152606401610661565b610cec6001600160a01b0384168383611ed0565b505050565b600080610cfd83611f19565b90506000610d0a82611f2e565b90506000610d166105c6565b9050818111610d2a57506000949350505050565b509392505050565b6001546001600160a01b03163314610d8c5760405162461bcd60e51b815260206004820181905260248201527f4f776e61626c653a2063616c6c6572206973206e6f7420746865206f776e65726044820152606401610661565b610d96600061210a565b565b6001546001600160a01b03163314610df25760405162461bcd60e51b815260206004820181905260248201527f4f776e61626c653a2063616c6c6572206973206e6f7420746865206f776e65726044820152606401610661565b600455565b60008054604080517ffeaf968c000000000000000000000000000000000000000000000000000000008152905183926001600160a01b03169163feaf968c9160048083019260a0929190829003018186803b158015610e5557600080fd5b505afa158015610e69573d6000803e3d6000fd5b505050506040513d601f19601f82011682018060405250810190610e8d919061321a565b509195945050505050565b600080610ea483611a34565b60085490915081906001600160a01b03868116911614801590610ed557506009546001600160a01b03868116911614155b15610f0457600854610ef390869084906001600160a01b03166112f7565b6008546001600160a01b0316955090505b6008546001600160a01b0386811691161480610f2d57506009546001600160a01b038681169116145b15610f4257610f3b81611a5d565b9250610f51565b610f4e61060682612174565b92505b505092915050565b600080610f6583610cf1565b6008549091506001600160a01b0385811691161480610f82575080155b15610f8e57905061060b565b6009546001600160a01b0385811691161415610fb557610fad81612174565b91505061060b565b6000610fc082612174565b600854909150600090610fdd906001600160a01b031684886112f7565b600954909150600090610ffa906001600160a01b031684896112f7565b90508082108061108257506008546040516370a0823160e01b815230600482015285916001600160a01b0316906370a082319060240160206040518083038186803b15801561104857600080fd5b505afa15801561105c573d6000803e3d6000fd5b505050506040513d601f19601f8201168201806040525081019061108091906131e1565b105b1561109257935061060b92505050565b5095945050505050565b6001546001600160a01b031633146110f65760405162461bcd60e51b815260206004820181905260248201527f4f776e61626c653a2063616c6c6572206973206e6f7420746865206f776e65726044820152606401610661565b600355565b600060028054141561114f5760405162461bcd60e51b815260206004820152601f60248201527f5265656e7472616e637947756172643a207265656e7472616e742063616c6c006044820152606401610661565b6002805581428110156111a45760405162461bcd60e51b815260206004820152601860248201527f5065674465783a20444541444c494e455f4558504952454400000000000000006044820152606401610661565b6007546040517f9dc29fac000000000000000000000000000000000000000000000000000000008152336004820152602481018790526001600160a01b0390911690639dc29fac90604401600060405180830381600087803b15801561120957600080fd5b505af115801561121d573d6000803e3d6000fd5b50505050600061122c86610cf1565b90506000811161127e5760405162461bcd60e51b815260206004820152601660248201527f5065674465783a204f55545055545f544f4f5f4c4f57000000000000000000006044820152606401610661565b611289818887612195565b600754604080513381526001600160a01b0392831660208201529081018990529089166060820152608081018290529093507f692315744755ee6d80decaeb993d4b1bb95ff5db042cc47b32d5a7d858b019029060a00160405180910390a150506001600255949350505050565b60008261130657506000611618565b600654604080517fc45a015500000000000000000000000000000000000000000000000000000000815290516000926001600160a01b03169163c45a0155916004808301926020929190829003018186803b15801561136457600080fd5b505afa158015611378573d6000803e3d6000fd5b505050506040513d601f19601f8201168201806040525081019061139c9190612fa4565b6040517fe6a439050000000000000000000000000000000000000000000000000000000081526001600160a01b0387811660048301528581166024830152919091169063e6a439059060440160206040518083038186803b15801561140057600080fd5b505afa158015611414573d6000803e3d6000fd5b505050506040513d601f19601f820116820180604052508101906114389190612fa4565b9050600080826001600160a01b0316630902f1ac6040518163ffffffff1660e01b815260040160606040518083038186803b15801561147657600080fd5b505afa15801561148a573d6000803e3d6000fd5b505050506040513d601f19601f820116820180604052508101906114ae919061319e565b506dffffffffffffffffffffffffffff1691506dffffffffffffffffffffffffffff169150600080886001600160a01b0316856001600160a01b0316630dfe16816040518163ffffffff1660e01b815260040160206040518083038186803b15801561151957600080fd5b505afa15801561152d573d6000803e3d6000fd5b505050506040513d601f19601f820116820180604052508101906115519190612fa4565b6001600160a01b031614611566578284611569565b83835b6006546040517f054d50d4000000000000000000000000000000000000000000000000000000008152600481018c905260248101849052604481018390529294509092506001600160a01b03169063054d50d49060640160206040518083038186803b1580156115d857600080fd5b505afa1580156115ec573d6000803e3d6000fd5b505050506040513d601f19601f8201168201806040525081019061161091906131e1565b955050505050505b9392505050565b6001546001600160a01b031633146116795760405162461bcd60e51b815260206004820181905260248201527f4f776e61626c653a2063616c6c6572206973206e6f7420746865206f776e65726044820152606401610661565b60008112156116ca5760405162461bcd60e51b815260206004820152601660248201527f5045474445583a204e454741544956455f5052494345000000000000000000006044820152606401610661565b600b55565b6000600b546000146116e25750600b5490565b6105d0610df7565b6009546040516370a0823160e01b8152306004820152600091611771916001600160a01b03909116906370a082319060240160206040518083038186803b15801561173457600080fd5b505afa158015611748573d6000803e3d6000fd5b505050506040513d601f19601f8201168201806040525081019061176c91906131e1565b612174565b6008546040516370a0823160e01b81523060048201526001600160a01b03909116906370a082319060240160206040518083038186803b1580156117b457600080fd5b505afa1580156117c8573d6000803e3d6000fd5b505050506040513d601f19601f820116820180604052508101906117ec91906131e1565b6105d091906133a6565b6001546001600160a01b031633146118505760405162461bcd60e51b815260206004820181905260248201527f4f776e61626c653a2063616c6c6572206973206e6f7420746865206f776e65726044820152606401610661565b6000826001600160a01b03168260405160006040518083038185875af1925050503d806000811461189d576040519150601f19603f3d011682016040523d82523d6000602084013e6118a2565b606091505b5050905080610cec5760405162461bcd60e51b815260206004820152601460248201527f4661696c656420746f2073656e642045746865720000000000000000000000006044820152606401610661565b6001546001600160a01b0316331461194d5760405162461bcd60e51b815260206004820181905260248201527f4f776e61626c653a2063616c6c6572206973206e6f7420746865206f776e65726044820152606401610661565b600c55565b6001546001600160a01b031633146119ac5760405162461bcd60e51b815260206004820181905260248201527f4f776e61626c653a2063616c6c6572206973206e6f7420746865206f776e65726044820152606401610661565b6001600160a01b038116611a285760405162461bcd60e51b815260206004820152602660248201527f4f776e61626c653a206e6577206f776e657220697320746865207a65726f206160448201527f64647265737300000000000000000000000000000000000000000000000000006064820152608401610661565b611a318161210a565b50565b60006103e8600c546103e8611a499190613510565b611a5390846134f1565b61060b91906133e3565b600080611a686116cf565b60008054906101000a90046001600160a01b03166001600160a01b031663313ce5676040518163ffffffff1660e01b815260040160206040518083038186803b158015611ab457600080fd5b505afa158015611ac8573d6000803e3d6000fd5b505050506040513d601f19601f82011682018060405250810190611aec9190613269565b611af790600a613446565b611b0190856134f1565b611b0b91906133e3565b9050600860009054906101000a90046001600160a01b03166001600160a01b031663313ce5676040518163ffffffff1660e01b815260040160206040518083038186803b158015611b5b57600080fd5b505afa158015611b6f573d6000803e3d6000fd5b505050506040513d601f19601f82011682018060405250810190611b939190613269565b600760009054906101000a90046001600160a01b03166001600160a01b031663313ce5676040518163ffffffff1660e01b815260040160206040518083038186803b158015611be157600080fd5b505afa158015611bf5573d6000803e3d6000fd5b505050506040513d601f19601f82011682018060405250810190611c199190613269565b611c239190613527565b611c2e90600a613446565b61161890826134f1565b6040516001600160a01b0380851660248301528316604482015260648101829052611ce99085907f23b872dd00000000000000000000000000000000000000000000000000000000906084015b60408051601f198184030181529190526020810180517bffffffffffffffffffffffffffffffffffffffffffffffffffffffff167fffffffff00000000000000000000000000000000000000000000000000000000909316929092179091526121e3565b50505050565b6040517fdd62ed3e0000000000000000000000000000000000000000000000000000000081523060048201526001600160a01b038381166024830152600091839186169063dd62ed3e9060440160206040518083038186803b158015611d5457600080fd5b505afa158015611d68573d6000803e3d6000fd5b505050506040513d601f19601f82011682018060405250810190611d8c91906131e1565b611d9691906133a6565b6040516001600160a01b038516602482015260448101829052909150611ce99085907f095ea7b30000000000000000000000000000000000000000000000000000000090606401611c85565b60095460009083906001600160a01b0386811691161415611e0957611e0684612174565b90505b611e1281611a5d565b915082821015611e645760405162461bcd60e51b815260206004820152601b60248201527f5065674465783a20494e53554646494349454e545f4f555450555400000000006044820152606401610661565b6007546040516340c10f1960e01b8152336004820152602481018490526001600160a01b03909116906340c10f1990604401600060405180830381600087803b158015611eb057600080fd5b505af1158015611ec4573d6000803e3d6000fd5b50505050509392505050565b6040516001600160a01b038316602482015260448101829052610cec9084907fa9059cbb0000000000000000000000000000000000000000000000000000000090606401611c85565b60006103e8600d546103e8611a499190613510565b600080611f396116cf565b90506000611f4782856134f1565b9050600860009054906101000a90046001600160a01b03166001600160a01b031663313ce5676040518163ffffffff1660e01b815260040160206040518083038186803b158015611f9757600080fd5b505afa158015611fab573d6000803e3d6000fd5b505050506040513d601f19601f82011682018060405250810190611fcf9190613269565b600760009054906101000a90046001600160a01b03166001600160a01b031663313ce5676040518163ffffffff1660e01b815260040160206040518083038186803b15801561201d57600080fd5b505afa158015612031573d6000803e3d6000fd5b505050506040513d601f19601f820116820180604052508101906120559190613269565b61205f9190613527565b60008054906101000a90046001600160a01b03166001600160a01b031663313ce5676040518163ffffffff1660e01b815260040160206040518083038186803b1580156120ab57600080fd5b505afa1580156120bf573d6000803e3d6000fd5b505050506040513d601f19601f820116820180604052508101906120e39190613269565b6120ed91906133be565b6120f890600a613446565b61210290826133e3565b949350505050565b600180546001600160a01b038381167fffffffffffffffffffffffff0000000000000000000000000000000000000000831681179093556040519116919082907f8be0079c531659141344cd1fd0a4f28419497f9722a3daafe3b4186f6b6457e090600090a35050565b60095460085460009161060b916001600160a01b03918216918591166122c8565b6008546000906001600160a01b03848116911614806121c157506009546001600160a01b038481169116145b156121d8576121d184848461242a565b9050611618565b6121028484846124bf565b6000612238826040518060400160405280602081526020017f5361666545524332303a206c6f772d6c6576656c2063616c6c206661696c6564815250856001600160a01b03166126779092919063ffffffff16565b805190915015610cec5780806020019051810190612256919061312c565b610cec5760405162461bcd60e51b815260206004820152602a60248201527f5361666545524332303a204552433230206f7065726174696f6e20646964206e60448201527f6f742073756363656564000000000000000000000000000000000000000000006064820152608401610661565b6000826122d757506000611618565b604080516002808252606082018352600092602083019080368337019050509050848160008151811061231a57634e487b7160e01b600052603260045260246000fd5b60200260200101906001600160a01b031690816001600160a01b031681525050828160018151811061235c57634e487b7160e01b600052603260045260246000fd5b6001600160a01b03928316602091820292909201015260065460405163d06ca61f60e01b8152600092919091169063d06ca61f906123a0908890869060040161331c565b60006040518083038186803b1580156123b857600080fd5b505afa1580156123cc573d6000803e3d6000fd5b505050506040513d6000823e601f3d908101601f191682016040526123f4919081019061306c565b90508060018151811061241757634e487b7160e01b600052603260045260246000fd5b6020026020010151925050509392505050565b6009546000906001600160a01b038481169116141561244f5761244c84612686565b93505b61245983856126a7565b9050818110156124ab5760405162461bcd60e51b815260206004820152601b60248201527f5065674465783a20494e53554646494349454e545f4f555450555400000000006044820152606401610661565b6116186001600160a01b0384163383611ed0565b60085460009081906124db906001600160a01b031686866112f7565b905060006124e886612174565b600954909150600090612505906001600160a01b031683886112f7565b90508083108061258d57506008546040516370a0823160e01b815230600482015288916001600160a01b0316906370a082319060240160206040518083038186803b15801561255357600080fd5b505afa158015612567573d6000803e3d6000fd5b505050506040513d601f19601f8201168201806040525081019061258b91906131e1565b105b1561260457848110156125e25760405162461bcd60e51b815260206004820152601b60248201527f5065674465783a20494e53554646494349454e545f4f555450555400000000006044820152606401610661565b6009546125fa906001600160a01b03168388846129da565b9350505050611618565b848310156126545760405162461bcd60e51b815260206004820152601b60248201527f5065674465783a20494e53554646494349454e545f4f555450555400000000006044820152606401610661565b60085461266c906001600160a01b03168888866129da565b979650505050505050565b60606121028484600085612c38565b60085460095460009161060b916001600160a01b03918216918591166122c8565b6040516370a0823160e01b815230600482015260009081906001600160a01b038516906370a082319060240160206040518083038186803b1580156126eb57600080fd5b505afa1580156126ff573d6000803e3d6000fd5b505050506040513d601f19601f8201168201806040525081019061272391906131e1565b9050808311156129d25760006127398285613510565b6008549091506000906001600160a01b038781169116146127625761275d82612d75565b61276b565b61276b82612d95565b6008549091506001600160a01b038781169116146127a5576006546008546127a0916001600160a01b03918216911683611cef565b6127c2565b6006546009546127c2916001600160a01b03918216911683611cef565b604080516002808252606082018352600092602083019080368337019050506008549091506001600160a01b0388811691161461280a576008546001600160a01b0316612817565b6009546001600160a01b03165b8160008151811061283857634e487b7160e01b600052603260045260246000fd5b60200260200101906001600160a01b031690816001600160a01b031681525050868160018151811061287a57634e487b7160e01b600052603260045260246000fd5b6001600160a01b03928316602091820292909201015260065460405163d06ca61f60e01b8152600092919091169063d06ca61f906128be908690869060040161331c565b60006040518083038186803b1580156128d657600080fd5b505afa1580156128ea573d6000803e3d6000fd5b505050506040513d6000823e601f3d908101601f19168201604052612912919081019061306c565b60018151811061293257634e487b7160e01b600052603260045260246000fd5b60209081029190910101516006546040516338ed173960e01b81529192506001600160a01b0316906338ed173990612976908690859087903090429060040161336a565b600060405180830381600087803b15801561299057600080fd5b505af11580156129a4573d6000803e3d6000fd5b505050506040513d6000823e601f3d908101601f191682016040526129cc919081019061306c565b50505050505b509092915050565b6006546000906129f7906001600160a01b03878116911686611cef565b6040805160028082526060820183526000926020830190803683370190505090508581600081518110612a3a57634e487b7160e01b600052603260045260246000fd5b60200260200101906001600160a01b031690816001600160a01b0316815250508381600181518110612a7c57634e487b7160e01b600052603260045260246000fd5b6001600160a01b039283166020918202929092010152600a5485821691161415612b77576006546040517f18cbafe50000000000000000000000000000000000000000000000000000000081526001600160a01b03909116906318cbafe590612af1908890879086903390429060040161336a565b600060405180830381600087803b158015612b0b57600080fd5b505af1158015612b1f573d6000803e3d6000fd5b505050506040513d6000823e601f3d908101601f19168201604052612b47919081019061306c565b600181518110612b6757634e487b7160e01b600052603260045260246000fd5b6020026020010151915050612102565b6006546040516338ed173960e01b81526001600160a01b03909116906338ed173990612baf908890879086903390429060040161336a565b600060405180830381600087803b158015612bc957600080fd5b505af1158015612bdd573d6000803e3d6000fd5b505050506040513d6000823e601f3d908101601f19168201604052612c05919081019061306c565b600181518110612c2557634e487b7160e01b600052603260045260246000fd5b6020026020010151915050949350505050565b606082471015612cb05760405162461bcd60e51b815260206004820152602660248201527f416464726573733a20696e73756666696369656e742062616c616e636520666f60448201527f722063616c6c00000000000000000000000000000000000000000000000000006064820152608401610661565b6001600160a01b0385163b612d075760405162461bcd60e51b815260206004820152601d60248201527f416464726573733a2063616c6c20746f206e6f6e2d636f6e74726163740000006044820152606401610661565b600080866001600160a01b03168587604051612d2391906132cd565b60006040518083038185875af1925050503d8060008114612d60576040519150601f19603f3d011682016040523d82523d6000602084013e612d65565b606091505b509150915061266c828286612db5565b60085460095460009161060b916001600160a01b03918216911684612dee565b60095460085460009161060b916001600160a01b03918216911684612dee565b60608315612dc4575081611618565b825115612dd45782518084602001fd5b8160405162461bcd60e51b815260040161066191906132e9565b604080516002808252606082018352600092839291906020830190803683370190505090508481600081518110612e3557634e487b7160e01b600052603260045260246000fd5b60200260200101906001600160a01b031690816001600160a01b0316815250508381600181518110612e7757634e487b7160e01b600052603260045260246000fd5b6001600160a01b0392831660209182029290920101526006546040517f1f00ca740000000000000000000000000000000000000000000000000000000081526000929190911690631f00ca7490612ed4908790869060040161331c565b60006040518083038186803b158015612eec57600080fd5b505afa158015612f00573d6000803e3d6000fd5b505050506040513d6000823e601f3d908101601f19168201604052612f28919081019061306c565b90508060008151811061241757634e487b7160e01b600052603260045260246000fd5b80516dffffffffffffffffffffffffffff81168114612f6957600080fd5b919050565b805169ffffffffffffffffffff81168114612f6957600080fd5b600060208284031215612f99578081fd5b8135611618816135a2565b600060208284031215612fb5578081fd5b8151611618816135a2565b600080600060608486031215612fd4578182fd5b8335612fdf816135a2565b92506020840135612fef816135a2565b929592945050506040919091013590565b60008060408385031215613012578182fd5b823561301d816135a2565b946020939093013593505050565b60008060006060848603121561303f578283fd5b833561304a816135a2565b9250602084013591506040840135613061816135a2565b809150509250925092565b6000602080838503121561307e578182fd5b825167ffffffffffffffff80821115613095578384fd5b818501915085601f8301126130a8578384fd5b8151818111156130ba576130ba61358c565b8060051b604051601f19603f830116810181811085821117156130df576130df61358c565b604052828152858101935084860182860187018a10156130fd578788fd5b8795505b8386101561311f578051855260019590950194938601938601613101565b5098975050505050505050565b60006020828403121561313d578081fd5b81518015158114611618578182fd5b60008060008060808587031215613161578081fd5b843561316c816135a2565b966020860135965060408601359560600135945092505050565b600060208284031215613197578081fd5b5035919050565b6000806000606084860312156131b2578283fd5b6131bb84612f4b565b92506131c960208501612f4b565b9150604084015163ffffffff81168114613061578182fd5b6000602082840312156131f2578081fd5b5051919050565b6000806040838503121561320b578182fd5b50508035926020909101359150565b600080600080600060a08688031215613231578283fd5b61323a86612f6e565b945060208601519350604086015192506060860151915061325d60808701612f6e565b90509295509295909350565b60006020828403121561327a578081fd5b815160ff81168114611618578182fd5b6000815180845260208085019450808401835b838110156132c25781516001600160a01b03168752958201959082019060010161329d565b509495945050505050565b600082516132df81846020870161354a565b9190910192915050565b602081526000825180602084015261330881604085016020870161354a565b601f01601f19169190910160400192915050565b828152604060208201526000612102604083018461328a565b84815260806020820152600061334e608083018661328a565b6001600160a01b03949094166040830152506060015292915050565b85815284602082015260a06040820152600061338960a083018661328a565b6001600160a01b0394909416606083015250608001529392505050565b600082198211156133b9576133b9613576565b500190565b600060ff821660ff84168060ff038211156133db576133db613576565b019392505050565b6000826133fe57634e487b7160e01b81526012600452602481fd5b500490565b600181815b8085111561343e57816000190482111561342457613424613576565b8085161561343157918102915b93841c9390800290613408565b509250929050565b600061161860ff84168360008261345f5750600161060b565b8161346c5750600061060b565b8160018114613482576002811461348c576134a8565b600191505061060b565b60ff84111561349d5761349d613576565b50506001821b61060b565b5060208310610133831016604e8410600b84101617156134cb575081810a61060b565b6134d58383613403565b80600019048211156134e9576134e9613576565b029392505050565b600081600019048311821515161561350b5761350b613576565b500290565b60008282101561352257613522613576565b500390565b600060ff821660ff84168082101561354157613541613576565b90039392505050565b60005b8381101561356557818101518382015260200161354d565b83811115611ce95750506000910152565b634e487b7160e01b600052601160045260246000fd5b634e487b7160e01b600052604160045260246000fd5b6001600160a01b0381168114611a3157600080fdfea2646970667358221220665749f5cc71386c01a461935b85f012e4df7f57d50c988957ecfb10d57cc4ee64736f6c63430008040033",
  "linkReferences": {},
  "deployedLinkReferences": {}
}